:100000000C943E000C9448000C94CA000C944800D8
:100010000C9448000C9448000C9448000C94480040
:100020000C9448000C9448000C9448000C94480030
:100030000C9448000C9448000C9448000C94480020
:100040000C9448000C9448000C9497000C944800C1
:100050000C9448000C9448000C9448000C94480000
:100060000C9448000C9448007500770079007B00E0
:100070007D007F00810083008500870011241FBE62
:10008000CFEFD8E0DEBFCDBF0E94F8000C94010195
:100090000C9400001092C5008CE08093C40088E9A5
:1000A0008093C10086E08093C20008959091C000C3
:1000B00095FFFCCF8093C60008958091C00087FF14
:1000C000FCCF8091C600089585B90895DB01482FC3
:1000D000880F550B660B770BFA01F097EA30F105A4
:1000E000C8F4EC5CFF4F0C94FB008FE311C086E07A
:1000F0000FC08BE50DC08FE40BC086E609C08DE60E
:1001000007C08DE705C087E003C08FE701C08FE619
:100110008C9308951C92089584B1806684B9539895
:100120005B9A529A5A980E944A00789408951F92B6
:100130000F920FB60F9211242F933F934F935F931B
:100140006F937F938F939F93AF93BF93EF93FF939F
:10015000CF93DF931F92CDB7DEB70E945D00BE0143
:100160006F5F7F4F0E946600898185B90F90DF9194
:10017000CF91FF91EF91BF91AF919F918F917F911F
:100180006F915F914F913F912F910F900FBE0F9004
:100190001F9018951F920F920FB60F9211242F9354
:1001A0003F934F935F936F937F938F939F93AF93FF
:1001B000BF93EF93FF9381E40E9456008CE40E946A
:1001C000560085E50E9456008EE40E945600FF917D
:1001D000EF91BF91AF919F918F917F916F915F91BF
:1001E0004F913F912F910F900FBE0F901F90189538
:1001F0000E948C00FFCFEE0FFF1F0590F491E02DC1
:060200000994F894FFCF01
:00000001FF
