:100000000C944B000C949D000C945D000C945D00CE
:100010000C945D000C945D000C945D000C945D00EC
:100020000C945D000C945D000C945D000C945D00DC
:100030000C945D000C945D000C945D000C945D00CC
:100040000C945D000C945D000C9470000C945D00A9
:100050000C945D000C945D000C945D000C945D00AC
:100060000C945D000C945D004A6F73C3A920486531
:100070006E726971756520426172626F73612050A2
:10008000656E61003F065B4F666D7D077F6F777C15
:10009000395E7971400011241FBECFEFD8E0DEBF7A
:1000A000CDBF21E0A0E0B1E001C01D92A130B207B8
:1000B000E1F70E94AC000C94CE000C94000080E0AC
:1000C000E82FF0E0E859FF4FE491EE2341F09091E2
:1000D000C00095FFFCCFE093C6008F5FF1CF08957D
:1000E0001F920F920FB60F9211248F939F93EF934D
:1000F000FF938091C600E0EDE80FEA3080F09FEBBF
:10010000980F963010F4E9EC05C09FE9980F9630EF
:1001100018F4E9EAE80F03C080E48BB905C0F0E009
:10012000EC57FF4FE491EBB9FF91EF919F918F91C5
:100130000F900FBE0F901F9018951F920F920FB641
:100140000F9211248F9381E0809300018F910F9083
:100150000FBE0F901F9018958FEF98E09EBF8DBF38
:100160001092C5008FEC8093C40088E98093C10091
:1001700086E08093C2008FEF8AB952985A9A82E043
:100180008093690081E08DBB789480910001882381
:10019000E1F30E945F0010920001F7CFF894FFCFC7
:00000001FF
