:020000020000FC
:0200000038C006
:100048002EC03F065B4F666D7D077F6F777C395EFC
:10005800797140004A4F53452048454E5249515501
:100068004520422050454E41000000E00093C50065
:100078000FEC0093C40008E90093C10006E0009368
:10008800C2000FEF04B952985A9A78944A99FECF51
:100098002ED04A99FBCF1CD04A9BFECFF7CF0091B8
:1000A800C600003384F00A3334F0013464F00734B6
:1000B80054F4075301C00053EAE4F0E0E00FF01DE8
:1000C800049105B91895EAE5F0E0049105B9DECF89
:1000D800ECE5F0E00591003011F002D0FBCF089577
:1000E8001091C00015FFFCCF0093C600089558EC8E
:0C00F8006AEF6A95F1F75A95D9F7089560
:00000001FF
